{
  "abi": [
    {
      "inputs": [
        {
          "internalType": "string",
          "name": "name_",
          "type": "string"
        },
        {
          "internalType": "string",
          "name": "symbol_",
          "type": "string"
        },
        {
          "internalType": "uint256",
          "name": "exponent_",
          "type": "uint256"
        },
        {
          "internalType": "uint256",
          "name": "constant_",
          "type": "uint256"
        }
      ],
      "stateMutability": "nonpayable",
      "type": "constructor"
    },
    {
      "inputs": [
        {
          "internalType": "uint256",
          "name": "amount",
          "type": "uint256"
        },
        {
          "internalType": "uint256",
          "name": "balance",
          "type": "uint256"
        }
      ],
      "name": "LowOnEther",
      "type": "error"
    },
    {
      "inputs": [
        {
          "internalType": "uint256",
          "name": "amount",
          "type": "uint256"
        },
        {
          "internalType": "uint256",
          "name": "balance",
          "type": "uint256"
        }
      ],
      "name": "LowOnTokens",
      "type": "error"
    },
    {
      "anonymous": false,
      "inputs": [
        {
          "indexed": true,
          "internalType": "address",
          "name": "owner",
          "type": "address"
        },
        {
          "indexed": true,
          "internalType": "address",
          "name": "spender",
          "type": "address"
        },
        {
          "indexed": false,
          "internalType": "uint256",
          "name": "value",
          "type": "uint256"
        }
      ],
      "name": "Approval",
      "type": "event"
    },
    {
      "anonymous": false,
      "inputs": [
        {
          "indexed": true,
          "internalType": "address",
          "name": "previousOwner",
          "type": "address"
        },
        {
          "indexed": true,
          "internalType": "address",
          "name": "newOwner",
          "type": "address"
        }
      ],
      "name": "OwnershipTransferred",
      "type": "event"
    },
    {
      "anonymous": false,
      "inputs": [
        {
          "indexed": true,
          "internalType": "address",
          "name": "from",
          "type": "address"
        },
        {
          "indexed": true,
          "internalType": "address",
          "name": "to",
          "type": "address"
        },
        {
          "indexed": false,
          "internalType": "uint256",
          "name": "value",
          "type": "uint256"
        }
      ],
      "name": "Transfer",
      "type": "event"
    },
    {
      "inputs": [
        {
          "internalType": "address",
          "name": "owner",
          "type": "address"
        },
        {
          "internalType": "address",
          "name": "spender",
          "type": "address"
        }
      ],
      "name": "allowance",
      "outputs": [
        {
          "internalType": "uint256",
          "name": "",
          "type": "uint256"
        }
      ],
      "stateMutability": "view",
      "type": "function"
    },
    {
      "inputs": [
        {
          "internalType": "address",
          "name": "spender",
          "type": "address"
        },
        {
          "internalType": "uint256",
          "name": "amount",
          "type": "uint256"
        }
      ],
      "name": "approve",
      "outputs": [
        {
          "internalType": "bool",
          "name": "",
          "type": "bool"
        }
      ],
      "stateMutability": "nonpayable",
      "type": "function"
    },
    {
      "inputs": [
        {
          "internalType": "address",
          "name": "account",
          "type": "address"
        }
      ],
      "name": "balanceOf",
      "outputs": [
        {
          "internalType": "uint256",
          "name": "",
          "type": "uint256"
        }
      ],
      "stateMutability": "view",
      "type": "function"
    },
    {
      "inputs": [
        {
          "internalType": "uint256",
          "name": "_amount",
          "type": "uint256"
        }
      ],
      "name": "buy",
      "outputs": [],
      "stateMutability": "payable",
      "type": "function"
    },
    {
      "inputs": [
        {
          "internalType": "uint256",
          "name": "_tokensToBuy",
          "type": "uint256"
        }
      ],
      "name": "calculatePriceForBuy",
      "outputs": [
        {
          "internalType": "uint256",
          "name": "",
          "type": "uint256"
        }
      ],
      "stateMutability": "view",
      "type": "function"
    },
    {
      "inputs": [
        {
          "internalType": "uint256",
          "name": "_tokensToSell",
          "type": "uint256"
        }
      ],
      "name": "calculatePriceForSell",
      "outputs": [
        {
          "internalType": "uint256",
          "name": "",
          "type": "uint256"
        }
      ],
      "stateMutability": "view",
      "type": "function"
    },
    {
      "inputs": [],
      "name": "decimals",
      "outputs": [
        {
          "internalType": "uint8",
          "name": "",
          "type": "uint8"
        }
      ],
      "stateMutability": "view",
      "type": "function"
    },
    {
      "inputs": [
        {
          "internalType": "address",
          "name": "spender",
          "type": "address"
        },
        {
          "internalType": "uint256",
          "name": "subtractedValue",
          "type": "uint256"
        }
      ],
      "name": "decreaseAllowance",
      "outputs": [
        {
          "internalType": "bool",
          "name": "",
          "type": "bool"
        }
      ],
      "stateMutability": "nonpayable",
      "type": "function"
    },
    {
      "inputs": [],
      "name": "getCurrentPrice",
      "outputs": [
        {
          "internalType": "uint256",
          "name": "",
          "type": "uint256"
        }
      ],
      "stateMutability": "view",
      "type": "function"
    },
    {
      "inputs": [
        {
          "internalType": "address",
          "name": "spender",
          "type": "address"
        },
        {
          "internalType": "uint256",
          "name": "addedValue",
          "type": "uint256"
        }
      ],
      "name": "increaseAllowance",
      "outputs": [
        {
          "internalType": "bool",
          "name": "",
          "type": "bool"
        }
      ],
      "stateMutability": "nonpayable",
      "type": "function"
    },
    {
      "inputs": [],
      "name": "name",
      "outputs": [
        {
          "internalType": "string",
          "name": "",
          "type": "string"
        }
      ],
      "stateMutability": "view",
      "type": "function"
    },
    {
      "inputs": [],
      "name": "owner",
      "outputs": [
        {
          "internalType": "address",
          "name": "",
          "type": "address"
        }
      ],
      "stateMutability": "view",
      "type": "function"
    },
    {
      "inputs": [],
      "name": "renounceOwnership",
      "outputs": [],
      "stateMutability": "nonpayable",
      "type": "function"
    },
    {
      "inputs": [
        {
          "internalType": "uint256",
          "name": "_amount",
          "type": "uint256"
        }
      ],
      "name": "sell",
      "outputs": [],
      "stateMutability": "nonpayable",
      "type": "function"
    },
    {
      "inputs": [],
      "name": "symbol",
      "outputs": [
        {
          "internalType": "string",
          "name": "",
          "type": "string"
        }
      ],
      "stateMutability": "view",
      "type": "function"
    },
    {
      "inputs": [],
      "name": "totalSupply",
      "outputs": [
        {
          "internalType": "uint256",
          "name": "",
          "type": "uint256"
        }
      ],
      "stateMutability": "view",
      "type": "function"
    },
    {
      "inputs": [
        {
          "internalType": "address",
          "name": "to",
          "type": "address"
        },
        {
          "internalType": "uint256",
          "name": "amount",
          "type": "uint256"
        }
      ],
      "name": "transfer",
      "outputs": [
        {
          "internalType": "bool",
          "name": "",
          "type": "bool"
        }
      ],
      "stateMutability": "nonpayable",
      "type": "function"
    },
    {
      "inputs": [
        {
          "internalType": "address",
          "name": "from",
          "type": "address"
        },
        {
          "internalType": "address",
          "name": "to",
          "type": "address"
        },
        {
          "internalType": "uint256",
          "name": "amount",
          "type": "uint256"
        }
      ],
      "name": "transferFrom",
      "outputs": [
        {
          "internalType": "bool",
          "name": "",
          "type": "bool"
        }
      ],
      "stateMutability": "nonpayable",
      "type": "function"
    },
    {
      "inputs": [
        {
          "internalType": "address",
          "name": "newOwner",
          "type": "address"
        }
      ],
      "name": "transferOwnership",
      "outputs": [],
      "stateMutability": "nonpayable",
      "type": "function"
    },
    {
      "inputs": [],
      "name": "viewTax",
      "outputs": [
        {
          "internalType": "uint256",
          "name": "",
          "type": "uint256"
        }
      ],
      "stateMutability": "view",
      "type": "function"
    },
    {
      "inputs": [],
      "name": "withdraw",
      "outputs": [],
      "stateMutability": "nonpayable",
      "type": "function"
    }
  ],
  "bytecode": {
    "object": "0x60c06040523480156200001157600080fd5b50604051620017223803806200172283398101604081905262000034916200019d565b83836003620000448382620002a6565b506004620000538282620002a6565b505050620000706200006a6200008260201b60201c565b62000086565b60809190915260a05250620003729050565b3390565b600580546001600160a01b038381166001600160a01b0319831681179093556040519116919082907f8be0079c531659141344cd1fd0a4f28419497f9722a3daafe3b4186f6b6457e090600090a35050565b634e487b7160e01b600052604160045260246000fd5b600082601f8301126200010057600080fd5b81516001600160401b03808211156200011d576200011d620000d8565b604051601f8301601f19908116603f01168101908282118183101715620001485762000148620000d8565b816040528381526020925086838588010111156200016557600080fd5b600091505b838210156200018957858201830151818301840152908201906200016a565b600093810190920192909252949350505050565b60008060008060808587031215620001b457600080fd5b84516001600160401b0380821115620001cc57600080fd5b620001da88838901620000ee565b95506020870151915080821115620001f157600080fd5b506200020087828801620000ee565b604087015160609097015195989097509350505050565b600181811c908216806200022c57607f821691505b6020821081036200024d57634e487b7160e01b600052602260045260246000fd5b50919050565b601f821115620002a157600081815260208120601f850160051c810160208610156200027c5750805b601f850160051c820191505b818110156200029d5782815560010162000288565b5050505b505050565b81516001600160401b03811115620002c257620002c2620000d8565b620002da81620002d3845462000217565b8462000253565b602080601f831160018114620003125760008415620002f95750858301515b600019600386901b1c1916600185901b1785556200029d565b600085815260208120601f198616915b82811015620003435788860151825594840194600190910190840162000322565b5085821015620003625787850151600019600388901b60f8161c191681555b5050505050600190811b01905550565b60805160a05161137c620003a660003960008181610f640152610fee015260008181610f880152610fbf015261137c6000f3fe60806040526004361061012a5760003560e01c806370a08231116100ab578063a9059cbb1161006f578063a9059cbb1461031d578063d96a094a1461033d578063dd62ed3e14610350578063e4849b3214610370578063eb91d37e14610390578063f2fde38b146103a557600080fd5b806370a0823114610275578063715018a6146102ab5780638da5cb5b146102c057806395d89b41146102e8578063a457c2d7146102fd57600080fd5b806325f2b2ac116100f257806325f2b2ac146101ed578063313ce5671461020d57806339509351146102295780633ccfd60b146102495780633e1dea631461026057600080fd5b806306fdde031461012f578063095ea7b31461015a578063147499881461018a57806318160ddd146101b857806323b872dd146101cd575b600080fd5b34801561013b57600080fd5b506101446103c5565b6040516101519190611042565b60405180910390f35b34801561016657600080fd5b5061017a6101753660046110ac565b610457565b6040519015158152602001610151565b34801561019657600080fd5b506101aa6101a53660046110d6565b610471565b604051908152602001610151565b3480156101c457600080fd5b506002546101aa565b3480156101d957600080fd5b5061017a6101e83660046110ef565b61047c565b3480156101f957600080fd5b506101aa6102083660046110d6565b6104a0565b34801561021957600080fd5b5060405160128152602001610151565b34801561023557600080fd5b5061017a6102443660046110ac565b6104ab565b34801561025557600080fd5b5061025e6104cd565b005b34801561026c57600080fd5b506101aa61059c565b34801561028157600080fd5b506101aa61029036600461112b565b6001600160a01b031660009081526020819052604090205490565b3480156102b757600080fd5b5061025e6105ad565b3480156102cc57600080fd5b506005546040516001600160a01b039091168152602001610151565b3480156102f457600080fd5b506101446105c1565b34801561030957600080fd5b5061017a6103183660046110ac565b6105d0565b34801561032957600080fd5b5061017a6103383660046110ac565b61064b565b61025e61034b3660046110d6565b610659565b34801561035c57600080fd5b506101aa61036b366004611146565b610728565b34801561037c57600080fd5b5061025e61038b3660046110d6565b610753565b34801561039c57600080fd5b506101aa61085a565b3480156103b157600080fd5b5061025e6103c036600461112b565b610885565b6060600380546103d490611179565b80601f016020809104026020016040519081016040528092919081815260200182805461040090611179565b801561044d5780601f106104225761010080835404028352916020019161044d565b820191906000526020600020905b81548152906001019060200180831161043057829003601f168201915b5050505050905090565b6000336104658185856108fe565b60019150505b92915050565b600061046b82610a22565b60003361048a858285610a62565b610495858585610ad6565b506001949350505050565b600061046b82610c7a565b6000336104658185856104be8383610728565b6104c891906111c9565b6108fe565b6104d5610ca8565b60006006541161050b57600654604051635f06b92b60e01b81526004810182905260248101919091526044015b60405180910390fd5b60068054600091829055906105286005546001600160a01b031690565b6001600160a01b03168260405160006040518083038185875af1925050503d8060008114610572576040519150601f19603f3d011682016040523d82523d6000602084013e610577565b606091505b50509050806105985760405162461bcd60e51b8152600401610502906111dc565b5050565b60006105a6610ca8565b5060065490565b6105b5610ca8565b6105bf6000610d02565b565b6060600480546103d490611179565b600033816105de8286610728565b90508381101561063e5760405162461bcd60e51b815260206004820152602560248201527f45524332303a2064656372656173656420616c6c6f77616e63652062656c6f77604482015264207a65726f60d81b6064820152608401610502565b61049582868684036108fe565b600033610465818585610ad6565b600061066482610c7a565b90508034101561069057604051635f06b92b60e01b815234600482015233316024820152604401610502565b61069a3383610d54565b60006106ae6005546001600160a01b031690565b6001600160a01b03166106c1833461120a565b604051600081818185875af1925050503d80600081146106fd576040519150601f19603f3d011682016040523d82523d6000602084013e610702565b606091505b50509050806107235760405162461bcd60e51b8152600401610502906111dc565b505050565b6001600160a01b03918216600090815260016020908152604080832093909416825291909152205490565b3360009081526020819052604090205481111561079e57336000908152602081905260409020548190604051630fcd33d560e01b815260048101929092526024820152604401610502565b60006107a982610a22565b905060006107b682610e13565b90506107c23384610e2e565b80600660008282546107d491906111c9565b90915550506005546000906001600160a01b03166107f2838561120a565b604051600081818185875af1925050503d806000811461082e576040519150601f19603f3d011682016040523d82523d6000602084013e610833565b606091505b50509050806108545760405162461bcd60e51b8152600401610502906111dc565b50505050565b600061086560025490565b61087661087160025490565b610f60565b610880919061121d565b905090565b61088d610ca8565b6001600160a01b0381166108f25760405162461bcd60e51b815260206004820152602660248201527f4f776e61626c653a206e6577206f776e657220697320746865207a65726f206160448201526564647265737360d01b6064820152608401610502565b6108fb81610d02565b50565b6001600160a01b0383166109605760405162461bcd60e51b8152602060048201526024808201527f45524332303a20617070726f76652066726f6d20746865207a65726f206164646044820152637265737360e01b6064820152608401610502565b6001600160a01b0382166109c15760405162461bcd60e51b815260206004820152602260248201527f45524332303a20617070726f766520746f20746865207a65726f206164647265604482015261737360f01b6064820152608401610502565b6001600160a01b0383811660008181526001602090815260408083209487168084529482529182902085905590518481527f8c5be1e5ebec7d5bd14f71427d1e84f3dd0314c0f7b2291e5b200ac8c7c3b925910160405180910390a3505050565b600080610a2e60025490565b90506000610a3c848361120a565b9050610a4781610fb7565b610a5083610fb7565b610a5a919061120a565b949350505050565b6000610a6e8484610728565b905060001981146108545781811015610ac95760405162461bcd60e51b815260206004820152601d60248201527f45524332303a20696e73756666696369656e7420616c6c6f77616e63650000006044820152606401610502565b61085484848484036108fe565b6001600160a01b038316610b3a5760405162461bcd60e51b815260206004820152602560248201527f45524332303a207472616e736665722066726f6d20746865207a65726f206164604482015264647265737360d81b6064820152608401610502565b6001600160a01b038216610b9c5760405162461bcd60e51b815260206004820152602360248201527f45524332303a207472616e7366657220746f20746865207a65726f206164647260448201526265737360e81b6064820152608401610502565b6001600160a01b03831660009081526020819052604090205481811015610c145760405162461bcd60e51b815260206004820152602660248201527f45524332303a207472616e7366657220616d6f756e7420657863656564732062604482015265616c616e636560d01b6064820152608401610502565b6001600160a01b03848116600081815260208181526040808320878703905593871680835291849020805487019055925185815290927fddf252ad1be2c89b69c2b068fc378daa952ba7f163c4a11628f55a4df523b3ef910160405180910390a3610854565b600080610c8660025490565b90506000610c9484836111c9565b9050610c9f82610fb7565b610a5082610fb7565b6005546001600160a01b031633146105bf5760405162461bcd60e51b815260206004820181905260248201527f4f776e61626c653a2063616c6c6572206973206e6f7420746865206f776e65726044820152606401610502565b600580546001600160a01b038381166001600160a01b0319831681179093556040519116919082907f8be0079c531659141344cd1fd0a4f28419497f9722a3daafe3b4186f6b6457e090600090a35050565b6001600160a01b038216610daa5760405162461bcd60e51b815260206004820152601f60248201527f45524332303a206d696e7420746f20746865207a65726f2061646472657373006044820152606401610502565b8060026000828254610dbc91906111c9565b90915550506001600160a01b038216600081815260208181526040808320805486019055518481527fddf252ad1be2c89b69c2b068fc378daa952ba7f163c4a11628f55a4df523b3ef910160405180910390a35050565b6000612710610e246103e88461121d565b61046b9190611234565b6001600160a01b038216610e8e5760405162461bcd60e51b815260206004820152602160248201527f45524332303a206275726e2066726f6d20746865207a65726f206164647265736044820152607360f81b6064820152608401610502565b6001600160a01b03821660009081526020819052604090205481811015610f025760405162461bcd60e51b815260206004820152602260248201527f45524332303a206275726e20616d6f756e7420657863656564732062616c616e604482015261636560f01b6064820152608401610502565b6001600160a01b0383166000818152602081815260408083208686039055600280548790039055518581529192917fddf252ad1be2c89b69c2b068fc378daa952ba7f163c4a11628f55a4df523b3ef910160405180910390a3505050565b60007f0000000000000000000000000000000000000000000000000000000000000000610fad7f00000000000000000000000000000000000000000000000000000000000000008461133a565b61046b91906111c9565b600080610fe57f000000000000000000000000000000000000000000000000000000000000000060016111c9565b905080836110137f00000000000000000000000000000000000000000000000000000000000000008361121d565b61101d919061121d565b611027838661133a565b61103191906111c9565b61103b9190611234565b9392505050565b600060208083528351808285015260005b8181101561106f57858101830151858201604001528201611053565b506000604082860101526040601f19601f8301168501019250505092915050565b80356001600160a01b03811681146110a757600080fd5b919050565b600080604083850312156110bf57600080fd5b6110c883611090565b946020939093013593505050565b6000602082840312156110e857600080fd5b5035919050565b60008060006060848603121561110457600080fd5b61110d84611090565b925061111b60208501611090565b9150604084013590509250925092565b60006020828403121561113d57600080fd5b61103b82611090565b6000806040838503121561115957600080fd5b61116283611090565b915061117060208401611090565b90509250929050565b600181811c9082168061118d57607f821691505b6020821081036111ad57634e487b7160e01b600052602260045260246000fd5b50919050565b634e487b7160e01b600052601160045260246000fd5b8082018082111561046b5761046b6111b3565b6020808252601490820152732330b4b632b2103a379039b2b7321022ba3432b960611b604082015260600190565b8181038181111561046b5761046b6111b3565b808202811582820484141761046b5761046b6111b3565b60008261125157634e487b7160e01b600052601260045260246000fd5b500490565b600181815b80851115611291578160001904821115611277576112776111b3565b8085161561128457918102915b93841c939080029061125b565b509250929050565b6000826112a85750600161046b565b816112b55750600061046b565b81600181146112cb57600281146112d5576112f1565b600191505061046b565b60ff8411156112e6576112e66111b3565b50506001821b61046b565b5060208310610133831016604e8410600b8410161715611314575081810a61046b565b61131e8383611256565b8060001904821115611332576113326111b3565b029392505050565b600061103b838361129956fea26469706673582212202e2ca1491fb6da80ab58046d8fed2cf908fa940423c0a73c6629ea70602df62a64736f6c63430008110033",
    "linkReferences": {}
  },
  "methodIdentifiers": {
    "allowance(address,address)": "dd62ed3e",
    "approve(address,uint256)": "095ea7b3",
    "balanceOf(address)": "70a08231",
    "buy(uint256)": "d96a094a",
    "calculatePriceForBuy(uint256)": "25f2b2ac",
    "calculatePriceForSell(uint256)": "14749988",
    "decimals()": "313ce567",
    "decreaseAllowance(address,uint256)": "a457c2d7",
    "getCurrentPrice()": "eb91d37e",
    "increaseAllowance(address,uint256)": "39509351",
    "name()": "06fdde03",
    "owner()": "8da5cb5b",
    "renounceOwnership()": "715018a6",
    "sell(uint256)": "e4849b32",
    "symbol()": "95d89b41",
    "totalSupply()": "18160ddd",
    "transfer(address,uint256)": "a9059cbb",
    "transferFrom(address,address,uint256)": "23b872dd",
    "transferOwnership(address)": "f2fde38b",
    "viewTax()": "3e1dea63",
    "withdraw()": "3ccfd60b"
  },
  "id": 0
}