{
  "abi": [
    {
      "inputs": [
        {
          "internalType": "string",
          "name": "name_",
          "type": "string"
        },
        {
          "internalType": "string",
          "name": "symbol_",
          "type": "string"
        },
        {
          "internalType": "uint256",
          "name": "slope_",
          "type": "uint256"
        }
      ],
      "stateMutability": "nonpayable",
      "type": "constructor"
    },
    {
      "inputs": [
        {
          "internalType": "uint256",
          "name": "amount",
          "type": "uint256"
        },
        {
          "internalType": "uint256",
          "name": "balance",
          "type": "uint256"
        }
      ],
      "name": "LowOnEther",
      "type": "error"
    },
    {
      "inputs": [
        {
          "internalType": "uint256",
          "name": "amount",
          "type": "uint256"
        },
        {
          "internalType": "uint256",
          "name": "balance",
          "type": "uint256"
        }
      ],
      "name": "LowOnTokens",
      "type": "error"
    },
    {
      "inputs": [
        {
          "internalType": "uint256",
          "name": "amount",
          "type": "uint256"
        },
        {
          "internalType": "uint256",
          "name": "MintCap",
          "type": "uint256"
        }
      ],
      "name": "ValueExceedsMintCap",
      "type": "error"
    },
    {
      "anonymous": false,
      "inputs": [
        {
          "indexed": true,
          "internalType": "address",
          "name": "owner",
          "type": "address"
        },
        {
          "indexed": true,
          "internalType": "address",
          "name": "spender",
          "type": "address"
        },
        {
          "indexed": false,
          "internalType": "uint256",
          "name": "value",
          "type": "uint256"
        }
      ],
      "name": "Approval",
      "type": "event"
    },
    {
      "anonymous": false,
      "inputs": [
        {
          "indexed": true,
          "internalType": "address",
          "name": "previousOwner",
          "type": "address"
        },
        {
          "indexed": true,
          "internalType": "address",
          "name": "newOwner",
          "type": "address"
        }
      ],
      "name": "OwnershipTransferred",
      "type": "event"
    },
    {
      "anonymous": false,
      "inputs": [
        {
          "indexed": true,
          "internalType": "address",
          "name": "from",
          "type": "address"
        },
        {
          "indexed": true,
          "internalType": "address",
          "name": "to",
          "type": "address"
        },
        {
          "indexed": false,
          "internalType": "uint256",
          "name": "value",
          "type": "uint256"
        }
      ],
      "name": "Transfer",
      "type": "event"
    },
    {
      "anonymous": false,
      "inputs": [
        {
          "indexed": true,
          "internalType": "address",
          "name": "buyer",
          "type": "address"
        },
        {
          "indexed": false,
          "internalType": "uint256",
          "name": "amount",
          "type": "uint256"
        },
        {
          "indexed": false,
          "internalType": "uint256",
          "name": "total_supply",
          "type": "uint256"
        },
        {
          "indexed": false,
          "internalType": "uint256",
          "name": "newPrice",
          "type": "uint256"
        }
      ],
      "name": "tokensBought",
      "type": "event"
    },
    {
      "anonymous": false,
      "inputs": [
        {
          "indexed": true,
          "internalType": "address",
          "name": "seller",
          "type": "address"
        },
        {
          "indexed": false,
          "internalType": "uint256",
          "name": "amount",
          "type": "uint256"
        },
        {
          "indexed": false,
          "internalType": "uint256",
          "name": "total_supply",
          "type": "uint256"
        },
        {
          "indexed": false,
          "internalType": "uint256",
          "name": "newPrice",
          "type": "uint256"
        }
      ],
      "name": "tokensSold",
      "type": "event"
    },
    {
      "anonymous": false,
      "inputs": [
        {
          "indexed": false,
          "internalType": "address",
          "name": "from",
          "type": "address"
        },
        {
          "indexed": false,
          "internalType": "address",
          "name": "to",
          "type": "address"
        },
        {
          "indexed": false,
          "internalType": "uint256",
          "name": "amount",
          "type": "uint256"
        },
        {
          "indexed": false,
          "internalType": "uint256",
          "name": "time",
          "type": "uint256"
        }
      ],
      "name": "withdrawn",
      "type": "event"
    },
    {
      "inputs": [
        {
          "internalType": "address",
          "name": "owner",
          "type": "address"
        },
        {
          "internalType": "address",
          "name": "spender",
          "type": "address"
        }
      ],
      "name": "allowance",
      "outputs": [
        {
          "internalType": "uint256",
          "name": "",
          "type": "uint256"
        }
      ],
      "stateMutability": "view",
      "type": "function"
    },
    {
      "inputs": [
        {
          "internalType": "address",
          "name": "spender",
          "type": "address"
        },
        {
          "internalType": "uint256",
          "name": "amount",
          "type": "uint256"
        }
      ],
      "name": "approve",
      "outputs": [
        {
          "internalType": "bool",
          "name": "",
          "type": "bool"
        }
      ],
      "stateMutability": "nonpayable",
      "type": "function"
    },
    {
      "inputs": [
        {
          "internalType": "address",
          "name": "account",
          "type": "address"
        }
      ],
      "name": "balanceOf",
      "outputs": [
        {
          "internalType": "uint256",
          "name": "",
          "type": "uint256"
        }
      ],
      "stateMutability": "view",
      "type": "function"
    },
    {
      "inputs": [
        {
          "internalType": "uint256",
          "name": "_amount",
          "type": "uint256"
        }
      ],
      "name": "buy",
      "outputs": [],
      "stateMutability": "payable",
      "type": "function"
    },
    {
      "inputs": [
        {
          "internalType": "uint256",
          "name": "_tokensToBuy",
          "type": "uint256"
        }
      ],
      "name": "calculatePriceForBuy",
      "outputs": [
        {
          "internalType": "uint256",
          "name": "",
          "type": "uint256"
        }
      ],
      "stateMutability": "view",
      "type": "function"
    },
    {
      "inputs": [
        {
          "internalType": "uint256",
          "name": "_tokensToSell",
          "type": "uint256"
        }
      ],
      "name": "calculatePriceForSell",
      "outputs": [
        {
          "internalType": "uint256",
          "name": "",
          "type": "uint256"
        }
      ],
      "stateMutability": "view",
      "type": "function"
    },
    {
      "inputs": [],
      "name": "decimals",
      "outputs": [
        {
          "internalType": "uint8",
          "name": "",
          "type": "uint8"
        }
      ],
      "stateMutability": "view",
      "type": "function"
    },
    {
      "inputs": [
        {
          "internalType": "address",
          "name": "spender",
          "type": "address"
        },
        {
          "internalType": "uint256",
          "name": "subtractedValue",
          "type": "uint256"
        }
      ],
      "name": "decreaseAllowance",
      "outputs": [
        {
          "internalType": "bool",
          "name": "",
          "type": "bool"
        }
      ],
      "stateMutability": "nonpayable",
      "type": "function"
    },
    {
      "inputs": [],
      "name": "getCurrentPrice",
      "outputs": [
        {
          "internalType": "uint256",
          "name": "",
          "type": "uint256"
        }
      ],
      "stateMutability": "view",
      "type": "function"
    },
    {
      "inputs": [
        {
          "internalType": "address",
          "name": "spender",
          "type": "address"
        },
        {
          "internalType": "uint256",
          "name": "addedValue",
          "type": "uint256"
        }
      ],
      "name": "increaseAllowance",
      "outputs": [
        {
          "internalType": "bool",
          "name": "",
          "type": "bool"
        }
      ],
      "stateMutability": "nonpayable",
      "type": "function"
    },
    {
      "inputs": [],
      "name": "name",
      "outputs": [
        {
          "internalType": "string",
          "name": "",
          "type": "string"
        }
      ],
      "stateMutability": "view",
      "type": "function"
    },
    {
      "inputs": [],
      "name": "owner",
      "outputs": [
        {
          "internalType": "address",
          "name": "",
          "type": "address"
        }
      ],
      "stateMutability": "view",
      "type": "function"
    },
    {
      "inputs": [],
      "name": "renounceOwnership",
      "outputs": [],
      "stateMutability": "nonpayable",
      "type": "function"
    },
    {
      "inputs": [
        {
          "internalType": "uint256",
          "name": "_amount",
          "type": "uint256"
        }
      ],
      "name": "sell",
      "outputs": [],
      "stateMutability": "nonpayable",
      "type": "function"
    },
    {
      "inputs": [
        {
          "internalType": "uint256",
          "name": "_loss",
          "type": "uint256"
        }
      ],
      "name": "setLoss",
      "outputs": [
        {
          "internalType": "uint256",
          "name": "",
          "type": "uint256"
        }
      ],
      "stateMutability": "nonpayable",
      "type": "function"
    },
    {
      "inputs": [
        {
          "internalType": "uint256",
          "name": "_mintCap",
          "type": "uint256"
        }
      ],
      "name": "setMintCap",
      "outputs": [
        {
          "internalType": "uint256",
          "name": "",
          "type": "uint256"
        }
      ],
      "stateMutability": "nonpayable",
      "type": "function"
    },
    {
      "inputs": [],
      "name": "symbol",
      "outputs": [
        {
          "internalType": "string",
          "name": "",
          "type": "string"
        }
      ],
      "stateMutability": "view",
      "type": "function"
    },
    {
      "inputs": [],
      "name": "totalSupply",
      "outputs": [
        {
          "internalType": "uint256",
          "name": "",
          "type": "uint256"
        }
      ],
      "stateMutability": "view",
      "type": "function"
    },
    {
      "inputs": [
        {
          "internalType": "address",
          "name": "to",
          "type": "address"
        },
        {
          "internalType": "uint256",
          "name": "amount",
          "type": "uint256"
        }
      ],
      "name": "transfer",
      "outputs": [
        {
          "internalType": "bool",
          "name": "",
          "type": "bool"
        }
      ],
      "stateMutability": "nonpayable",
      "type": "function"
    },
    {
      "inputs": [
        {
          "internalType": "address",
          "name": "from",
          "type": "address"
        },
        {
          "internalType": "address",
          "name": "to",
          "type": "address"
        },
        {
          "internalType": "uint256",
          "name": "amount",
          "type": "uint256"
        }
      ],
      "name": "transferFrom",
      "outputs": [
        {
          "internalType": "bool",
          "name": "",
          "type": "bool"
        }
      ],
      "stateMutability": "nonpayable",
      "type": "function"
    },
    {
      "inputs": [
        {
          "internalType": "address",
          "name": "newOwner",
          "type": "address"
        }
      ],
      "name": "transferOwnership",
      "outputs": [],
      "stateMutability": "nonpayable",
      "type": "function"
    },
    {
      "inputs": [],
      "name": "viewTax",
      "outputs": [
        {
          "internalType": "uint256",
          "name": "",
          "type": "uint256"
        }
      ],
      "stateMutability": "view",
      "type": "function"
    },
    {
      "inputs": [],
      "name": "withdraw",
      "outputs": [],
      "stateMutability": "nonpayable",
      "type": "function"
    }
  ],
  "bytecode": {
    "object": "0x60a06040526103e86007556064600855633b9aca006009553480156200002457600080fd5b50604051620018d4380380620018d48339810160408190526200004791620001aa565b82826003620000578382620002ac565b506004620000668282620002ac565b505050620000836200007d6200008f60201b60201c565b62000093565b60805250620003789050565b3390565b600580546001600160a01b038381166001600160a01b0319831681179093556040519116919082907f8be0079c531659141344cd1fd0a4f28419497f9722a3daafe3b4186f6b6457e090600090a35050565b634e487b7160e01b600052604160045260246000fd5b600082601f8301126200010d57600080fd5b81516001600160401b03808211156200012a576200012a620000e5565b604051601f8301601f19908116603f01168101908282118183101715620001555762000155620000e5565b816040528381526020925086838588010111156200017257600080fd5b600091505b8382101562000196578582018301518183018401529082019062000177565b600093810190920192909252949350505050565b600080600060608486031215620001c057600080fd5b83516001600160401b0380821115620001d857600080fd5b620001e687838801620000fb565b94506020860151915080821115620001fd57600080fd5b506200020c86828701620000fb565b925050604084015190509250925092565b600181811c908216806200023257607f821691505b6020821081036200025357634e487b7160e01b600052602260045260246000fd5b50919050565b601f821115620002a757600081815260208120601f850160051c81016020861015620002825750805b601f850160051c820191505b81811015620002a3578281556001016200028e565b5050505b505050565b81516001600160401b03811115620002c857620002c8620000e5565b620002e081620002d984546200021d565b8462000259565b602080601f831160018114620003185760008415620002ff5750858301515b600019600386901b1c1916600185901b178555620002a3565b600085815260208120601f198616915b82811015620003495788860151825594840194600190910190840162000328565b5085821015620003685787850151600019600388901b60f8161c191681555b5050505050600190811b01905550565b6080516115406200039460003960006111dd01526115406000f3fe6080604052600436106101405760003560e01c806370a08231116100b6578063a9059cbb1161006f578063a9059cbb14610373578063d96a094a14610393578063dd62ed3e146103a6578063e4849b32146103c6578063eb91d37e146103e6578063f2fde38b146103fb57600080fd5b806370a08231146102ab578063715018a6146102e157806372ae4c34146102f65780638da5cb5b1461031657806395d89b411461033e578063a457c2d71461035357600080fd5b806325f2b2ac1161010857806325f2b2ac14610203578063313ce56714610223578063395093511461023f5780633ccfd60b1461025f5780633e1dea63146102765780634070a0c91461028b57600080fd5b806306fdde0314610145578063095ea7b31461017057806314749988146101a057806318160ddd146101ce57806323b872dd146101e3575b600080fd5b34801561015157600080fd5b5061015a61041b565b6040516101679190611201565b60405180910390f35b34801561017c57600080fd5b5061019061018b366004611266565b6104ad565b6040519015158152602001610167565b3480156101ac57600080fd5b506101c06101bb366004611290565b6104c7565b604051908152602001610167565b3480156101da57600080fd5b506002546101c0565b3480156101ef57600080fd5b506101906101fe3660046112a9565b6104d2565b34801561020f57600080fd5b506101c061021e366004611290565b6104f6565b34801561022f57600080fd5b5060405160128152602001610167565b34801561024b57600080fd5b5061019061025a366004611266565b610501565b34801561026b57600080fd5b50610274610523565b005b34801561028257600080fd5b506101c0610638565b34801561029757600080fd5b506101c06102a6366004611290565b610649565b3480156102b757600080fd5b506101c06102c63660046112e5565b6001600160a01b031660009081526020819052604090205490565b3480156102ed57600080fd5b506102746106b3565b34801561030257600080fd5b506101c0610311366004611290565b6106c7565b34801561032257600080fd5b506005546040516001600160a01b039091168152602001610167565b34801561034a57600080fd5b5061015a610739565b34801561035f57600080fd5b5061019061036e366004611266565b610748565b34801561037f57600080fd5b5061019061038e366004611266565b6107c3565b6102746103a1366004611290565b6107d1565b3480156103b257600080fd5b506101c06103c1366004611307565b610963565b3480156103d257600080fd5b506102746103e1366004611290565b61098e565b3480156103f257600080fd5b506101c0610adc565b34801561040757600080fd5b506102746104163660046112e5565b610aed565b60606003805461042a9061133a565b80601f01602080910402602001604051908101604052809291908181526020018280546104569061133a565b80156104a35780601f10610478576101008083540402835291602001916104a3565b820191906000526020600020905b81548152906001019060200180831161048657829003601f168201915b5050505050905090565b6000336104bb818585610b66565b60019150505b92915050565b60006104c182610c8b565b6000336104e0858285610ccb565b6104eb858585610d45565b506001949350505050565b60006104c182610ee9565b6000336104bb8185856105148383610963565b61051e919061138a565b610b66565b61052b610f17565b60006006541161056157600654604051635f06b92b60e01b81526004810182905260248101919091526044015b60405180910390fd5b600680546000918290559061057e6005546001600160a01b031690565b6001600160a01b03168260405160006040518083038185875af1925050503d80600081146105c8576040519150601f19603f3d011682016040523d82523d6000602084013e6105cd565b606091505b50509050806105ee5760405162461bcd60e51b81526004016105589061139d565b604080513081523360208201529081018390524260608201527f3acaa4293506badc3b029f94990e48c03c6112c2b5c4ce7c0836f974173060a89060800160405180910390a15050565b6000610642610f17565b5060065490565b6000610653610f17565b600a60085410156106a65760405162461bcd60e51b815260206004820152601f60248201527f76616c75652073686f756c642062652067726561746572207468616e203130006044820152606401610558565b506008819055805b919050565b6106bb610f17565b6106c56000610f71565b565b60006106d1610f17565b611388600754106107305760405162461bcd60e51b815260206004820152602360248201527f72657175697265206c6f737320746f206265203e3d20313030302026203c203560448201526203030360ec1b6064820152608401610558565b50600781905590565b60606004805461042a9061133a565b600033816107568286610963565b9050838110156107b65760405162461bcd60e51b815260206004820152602560248201527f45524332303a2064656372656173656420616c6c6f77616e63652062656c6f77604482015264207a65726f60d81b6064820152608401610558565b6104eb8286868403610b66565b6000336104bb818585610d45565b600954816107de60025490565b6107e8919061138a565b111561082b5760405162461bcd60e51b815260206004820152601260248201527106578636565647320737570706c79206361760741b6044820152606401610558565b600061083682610ee9565b90508034101561086257604051635f06b92b60e01b815234600482015233316024820152604401610558565b6008548211156108935760085460405163b0a15b8960e01b8152610558918491600401918252602082015260400190565b61089d3383610fc3565b6000336108aa83346113cb565b604051600081818185875af1925050503d80600081146108e6576040519150601f19603f3d011682016040523d82523d6000602084013e6108eb565b606091505b505090508061090c5760405162461bcd60e51b81526004016105589061139d565b337f30fefb061d1f53d430b3afb65c78c03ce89da963de3d93ce78da9d15beeb445a8461093860025490565b610940610adc565b6040805193845260208401929092529082015260600160405180910390a2505050565b6001600160a01b03918216600090815260016020908152604080832093909416825291909152205490565b336000908152602081905260409020548111156109d957336000908152602081905260409020548190604051630fcd33d560e01b815260048101929092526024820152604401610558565b60006109e482610c8b565b905060006109f182611082565b90506109fd338461109f565b8060066000828254610a0f919061138a565b909155506000905033610a2283856113cb565b604051600081818185875af1925050503d8060008114610a5e576040519150601f19603f3d011682016040523d82523d6000602084013e610a63565b606091505b5050905080610a845760405162461bcd60e51b81526004016105589061139d565b337f3cb699604c2c6259942a23fcc43403985c35d1f77159c35787e59df8388136e385610ab060025490565b610ab8610adc565b6040805193845260208401929092529082015260600160405180910390a250505050565b6000610ae86001610ee9565b905090565b610af5610f17565b6001600160a01b038116610b5a5760405162461bcd60e51b815260206004820152602660248201527f4f776e61626c653a206e6577206f776e657220697320746865207a65726f206160448201526564647265737360d01b6064820152608401610558565b610b6381610f71565b50565b6001600160a01b038316610bc85760405162461bcd60e51b8152602060048201526024808201527f45524332303a20617070726f76652066726f6d20746865207a65726f206164646044820152637265737360e01b6064820152608401610558565b6001600160a01b038216610c295760405162461bcd60e51b815260206004820152602260248201527f45524332303a20617070726f766520746f20746865207a65726f206164647265604482015261737360f01b6064820152608401610558565b6001600160a01b0383811660008181526001602090815260408083209487168084529482529182902085905590518481527f8c5be1e5ebec7d5bd14f71427d1e84f3dd0314c0f7b2291e5b200ac8c7c3b92591015b60405180910390a3505050565b600080610c9760025490565b90506000610ca584836113cb565b9050610cb0816111c9565b610cb9836111c9565b610cc391906113cb565b949350505050565b6000610cd78484610963565b90506000198114610d3f5781811015610d325760405162461bcd60e51b815260206004820152601d60248201527f45524332303a20696e73756666696369656e7420616c6c6f77616e63650000006044820152606401610558565b610d3f8484848403610b66565b50505050565b6001600160a01b038316610da95760405162461bcd60e51b815260206004820152602560248201527f45524332303a207472616e736665722066726f6d20746865207a65726f206164604482015264647265737360d81b6064820152608401610558565b6001600160a01b038216610e0b5760405162461bcd60e51b815260206004820152602360248201527f45524332303a207472616e7366657220746f20746865207a65726f206164647260448201526265737360e81b6064820152608401610558565b6001600160a01b03831660009081526020819052604090205481811015610e835760405162461bcd60e51b815260206004820152602660248201527f45524332303a207472616e7366657220616d6f756e7420657863656564732062604482015265616c616e636560d01b6064820152608401610558565b6001600160a01b03848116600081815260208181526040808320878703905593871680835291849020805487019055925185815290927fddf252ad1be2c89b69c2b068fc378daa952ba7f163c4a11628f55a4df523b3ef910160405180910390a3610d3f565b600080610ef560025490565b90506000610f03848361138a565b9050610f0e826111c9565b610cb9826111c9565b6005546001600160a01b031633146106c55760405162461bcd60e51b815260206004820181905260248201527f4f776e61626c653a2063616c6c6572206973206e6f7420746865206f776e65726044820152606401610558565b600580546001600160a01b038381166001600160a01b0319831681179093556040519116919082907f8be0079c531659141344cd1fd0a4f28419497f9722a3daafe3b4186f6b6457e090600090a35050565b6001600160a01b0382166110195760405162461bcd60e51b815260206004820152601f60248201527f45524332303a206d696e7420746f20746865207a65726f2061646472657373006044820152606401610558565b806002600082825461102b919061138a565b90915550506001600160a01b038216600081815260208181526040808320805486019055518481527fddf252ad1be2c89b69c2b068fc378daa952ba7f163c4a11628f55a4df523b3ef910160405180910390a35050565b60006127106007548361109591906113de565b6104c191906113f5565b6001600160a01b0382166110ff5760405162461bcd60e51b815260206004820152602160248201527f45524332303a206275726e2066726f6d20746865207a65726f206164647265736044820152607360f81b6064820152608401610558565b6001600160a01b038216600090815260208190526040902054818110156111735760405162461bcd60e51b815260206004820152602260248201527f45524332303a206275726e20616d6f756e7420657863656564732062616c616e604482015261636560f01b6064820152608401610558565b6001600160a01b0383166000818152602081815260408083208686039055600280548790039055518581529192917fddf252ad1be2c89b69c2b068fc378daa952ba7f163c4a11628f55a4df523b3ef9101610c7e565b600060026111d781846114fb565b611095907f00000000000000000000000000000000000000000000000000000000000000006113de565b600060208083528351808285015260005b8181101561122e57858101830151858201604001528201611212565b506000604082860101526040601f19601f8301168501019250505092915050565b80356001600160a01b03811681146106ae57600080fd5b6000806040838503121561127957600080fd5b6112828361124f565b946020939093013593505050565b6000602082840312156112a257600080fd5b5035919050565b6000806000606084860312156112be57600080fd5b6112c78461124f565b92506112d56020850161124f565b9150604084013590509250925092565b6000602082840312156112f757600080fd5b6113008261124f565b9392505050565b6000806040838503121561131a57600080fd5b6113238361124f565b91506113316020840161124f565b90509250929050565b600181811c9082168061134e57607f821691505b60208210810361136e57634e487b7160e01b600052602260045260246000fd5b50919050565b634e487b7160e01b600052601160045260246000fd5b808201808211156104c1576104c1611374565b6020808252601490820152732330b4b632b2103a379039b2b7321022ba3432b960611b604082015260600190565b818103818111156104c1576104c1611374565b80820281158282048414176104c1576104c1611374565b60008261141257634e487b7160e01b600052601260045260246000fd5b500490565b600181815b8085111561145257816000190482111561143857611438611374565b8085161561144557918102915b93841c939080029061141c565b509250929050565b600082611469575060016104c1565b81611476575060006104c1565b816001811461148c5760028114611496576114b2565b60019150506104c1565b60ff8411156114a7576114a7611374565b50506001821b6104c1565b5060208310610133831016604e8410600b84101617156114d5575081810a6104c1565b6114df8383611417565b80600019048211156114f3576114f3611374565b029392505050565b600061130060ff84168361145a56fea2646970667358221220d5699dd4fe92424daa144b6f9a526cbb3023e8e4eb86fbe30220bae951f3be8064736f6c63430008110033",
    "linkReferences": {}
  },
  "methodIdentifiers": {
    "allowance(address,address)": "dd62ed3e",
    "approve(address,uint256)": "095ea7b3",
    "balanceOf(address)": "70a08231",
    "buy(uint256)": "d96a094a",
    "calculatePriceForBuy(uint256)": "25f2b2ac",
    "calculatePriceForSell(uint256)": "14749988",
    "decimals()": "313ce567",
    "decreaseAllowance(address,uint256)": "a457c2d7",
    "getCurrentPrice()": "eb91d37e",
    "increaseAllowance(address,uint256)": "39509351",
    "name()": "06fdde03",
    "owner()": "8da5cb5b",
    "renounceOwnership()": "715018a6",
    "sell(uint256)": "e4849b32",
    "setLoss(uint256)": "72ae4c34",
    "setMintCap(uint256)": "4070a0c9",
    "symbol()": "95d89b41",
    "totalSupply()": "18160ddd",
    "transfer(address,uint256)": "a9059cbb",
    "transferFrom(address,address,uint256)": "23b872dd",
    "transferOwnership(address)": "f2fde38b",
    "viewTax()": "3e1dea63",
    "withdraw()": "3ccfd60b"
  },
  "id": 1
}