{
  "abi": [
    {
      "inputs": [
        {
          "internalType": "string",
          "name": "name_",
          "type": "string"
        },
        {
          "internalType": "string",
          "name": "symbol_",
          "type": "string"
        },
        {
          "internalType": "uint256",
          "name": "slope_",
          "type": "uint256"
        }
      ],
      "stateMutability": "nonpayable",
      "type": "constructor"
    },
    {
      "inputs": [
        {
          "internalType": "uint256",
          "name": "amount",
          "type": "uint256"
        },
        {
          "internalType": "uint256",
          "name": "balance",
          "type": "uint256"
        }
      ],
      "name": "LowOnEther",
      "type": "error"
    },
    {
      "inputs": [
        {
          "internalType": "uint256",
          "name": "amount",
          "type": "uint256"
        },
        {
          "internalType": "uint256",
          "name": "balance",
          "type": "uint256"
        }
      ],
      "name": "LowOnTokens",
      "type": "error"
    },
    {
      "anonymous": false,
      "inputs": [
        {
          "indexed": true,
          "internalType": "address",
          "name": "owner",
          "type": "address"
        },
        {
          "indexed": true,
          "internalType": "address",
          "name": "spender",
          "type": "address"
        },
        {
          "indexed": false,
          "internalType": "uint256",
          "name": "value",
          "type": "uint256"
        }
      ],
      "name": "Approval",
      "type": "event"
    },
    {
      "anonymous": false,
      "inputs": [
        {
          "indexed": true,
          "internalType": "address",
          "name": "previousOwner",
          "type": "address"
        },
        {
          "indexed": true,
          "internalType": "address",
          "name": "newOwner",
          "type": "address"
        }
      ],
      "name": "OwnershipTransferred",
      "type": "event"
    },
    {
      "anonymous": false,
      "inputs": [
        {
          "indexed": true,
          "internalType": "address",
          "name": "from",
          "type": "address"
        },
        {
          "indexed": true,
          "internalType": "address",
          "name": "to",
          "type": "address"
        },
        {
          "indexed": false,
          "internalType": "uint256",
          "name": "value",
          "type": "uint256"
        }
      ],
      "name": "Transfer",
      "type": "event"
    },
    {
      "inputs": [
        {
          "internalType": "address",
          "name": "owner",
          "type": "address"
        },
        {
          "internalType": "address",
          "name": "spender",
          "type": "address"
        }
      ],
      "name": "allowance",
      "outputs": [
        {
          "internalType": "uint256",
          "name": "",
          "type": "uint256"
        }
      ],
      "stateMutability": "view",
      "type": "function"
    },
    {
      "inputs": [
        {
          "internalType": "address",
          "name": "spender",
          "type": "address"
        },
        {
          "internalType": "uint256",
          "name": "amount",
          "type": "uint256"
        }
      ],
      "name": "approve",
      "outputs": [
        {
          "internalType": "bool",
          "name": "",
          "type": "bool"
        }
      ],
      "stateMutability": "nonpayable",
      "type": "function"
    },
    {
      "inputs": [
        {
          "internalType": "address",
          "name": "account",
          "type": "address"
        }
      ],
      "name": "balanceOf",
      "outputs": [
        {
          "internalType": "uint256",
          "name": "",
          "type": "uint256"
        }
      ],
      "stateMutability": "view",
      "type": "function"
    },
    {
      "inputs": [
        {
          "internalType": "uint256",
          "name": "_amount",
          "type": "uint256"
        }
      ],
      "name": "buy",
      "outputs": [],
      "stateMutability": "payable",
      "type": "function"
    },
    {
      "inputs": [
        {
          "internalType": "uint256",
          "name": "_tokensToBuy",
          "type": "uint256"
        }
      ],
      "name": "calculatePriceForBuy",
      "outputs": [
        {
          "internalType": "uint256",
          "name": "",
          "type": "uint256"
        }
      ],
      "stateMutability": "view",
      "type": "function"
    },
    {
      "inputs": [
        {
          "internalType": "uint256",
          "name": "_tokensToSell",
          "type": "uint256"
        }
      ],
      "name": "calculatePriceForSell",
      "outputs": [
        {
          "internalType": "uint256",
          "name": "",
          "type": "uint256"
        }
      ],
      "stateMutability": "view",
      "type": "function"
    },
    {
      "inputs": [],
      "name": "decimals",
      "outputs": [
        {
          "internalType": "uint8",
          "name": "",
          "type": "uint8"
        }
      ],
      "stateMutability": "view",
      "type": "function"
    },
    {
      "inputs": [
        {
          "internalType": "address",
          "name": "spender",
          "type": "address"
        },
        {
          "internalType": "uint256",
          "name": "subtractedValue",
          "type": "uint256"
        }
      ],
      "name": "decreaseAllowance",
      "outputs": [
        {
          "internalType": "bool",
          "name": "",
          "type": "bool"
        }
      ],
      "stateMutability": "nonpayable",
      "type": "function"
    },
    {
      "inputs": [],
      "name": "getCurrentPrice",
      "outputs": [
        {
          "internalType": "uint256",
          "name": "",
          "type": "uint256"
        }
      ],
      "stateMutability": "view",
      "type": "function"
    },
    {
      "inputs": [
        {
          "internalType": "address",
          "name": "spender",
          "type": "address"
        },
        {
          "internalType": "uint256",
          "name": "addedValue",
          "type": "uint256"
        }
      ],
      "name": "increaseAllowance",
      "outputs": [
        {
          "internalType": "bool",
          "name": "",
          "type": "bool"
        }
      ],
      "stateMutability": "nonpayable",
      "type": "function"
    },
    {
      "inputs": [],
      "name": "name",
      "outputs": [
        {
          "internalType": "string",
          "name": "",
          "type": "string"
        }
      ],
      "stateMutability": "view",
      "type": "function"
    },
    {
      "inputs": [],
      "name": "owner",
      "outputs": [
        {
          "internalType": "address",
          "name": "",
          "type": "address"
        }
      ],
      "stateMutability": "view",
      "type": "function"
    },
    {
      "inputs": [],
      "name": "renounceOwnership",
      "outputs": [],
      "stateMutability": "nonpayable",
      "type": "function"
    },
    {
      "inputs": [
        {
          "internalType": "uint256",
          "name": "_amount",
          "type": "uint256"
        }
      ],
      "name": "sell",
      "outputs": [],
      "stateMutability": "nonpayable",
      "type": "function"
    },
    {
      "inputs": [],
      "name": "symbol",
      "outputs": [
        {
          "internalType": "string",
          "name": "",
          "type": "string"
        }
      ],
      "stateMutability": "view",
      "type": "function"
    },
    {
      "inputs": [],
      "name": "totalSupply",
      "outputs": [
        {
          "internalType": "uint256",
          "name": "",
          "type": "uint256"
        }
      ],
      "stateMutability": "view",
      "type": "function"
    },
    {
      "inputs": [
        {
          "internalType": "address",
          "name": "to",
          "type": "address"
        },
        {
          "internalType": "uint256",
          "name": "amount",
          "type": "uint256"
        }
      ],
      "name": "transfer",
      "outputs": [
        {
          "internalType": "bool",
          "name": "",
          "type": "bool"
        }
      ],
      "stateMutability": "nonpayable",
      "type": "function"
    },
    {
      "inputs": [
        {
          "internalType": "address",
          "name": "from",
          "type": "address"
        },
        {
          "internalType": "address",
          "name": "to",
          "type": "address"
        },
        {
          "internalType": "uint256",
          "name": "amount",
          "type": "uint256"
        }
      ],
      "name": "transferFrom",
      "outputs": [
        {
          "internalType": "bool",
          "name": "",
          "type": "bool"
        }
      ],
      "stateMutability": "nonpayable",
      "type": "function"
    },
    {
      "inputs": [
        {
          "internalType": "address",
          "name": "newOwner",
          "type": "address"
        }
      ],
      "name": "transferOwnership",
      "outputs": [],
      "stateMutability": "nonpayable",
      "type": "function"
    },
    {
      "inputs": [],
      "name": "viewTax",
      "outputs": [
        {
          "internalType": "uint256",
          "name": "",
          "type": "uint256"
        }
      ],
      "stateMutability": "view",
      "type": "function"
    },
    {
      "inputs": [],
      "name": "withdraw",
      "outputs": [],
      "stateMutability": "nonpayable",
      "type": "function"
    }
  ],
  "bytecode": {
    "object": "0x60a06040523480156200001157600080fd5b506040516200164e3803806200164e833981016040819052620000349162000197565b8282600362000044838262000299565b50600462000053828262000299565b505050620000706200006a6200007c60201b60201c565b62000080565b60805250620003659050565b3390565b600580546001600160a01b038381166001600160a01b0319831681179093556040519116919082907f8be0079c531659141344cd1fd0a4f28419497f9722a3daafe3b4186f6b6457e090600090a35050565b634e487b7160e01b600052604160045260246000fd5b600082601f830112620000fa57600080fd5b81516001600160401b0380821115620001175762000117620000d2565b604051601f8301601f19908116603f01168101908282118183101715620001425762000142620000d2565b816040528381526020925086838588010111156200015f57600080fd5b600091505b8382101562000183578582018301518183018401529082019062000164565b600093810190920192909252949350505050565b600080600060608486031215620001ad57600080fd5b83516001600160401b0380821115620001c557600080fd5b620001d387838801620000e8565b94506020860151915080821115620001ea57600080fd5b50620001f986828701620000e8565b925050604084015190509250925092565b600181811c908216806200021f57607f821691505b6020821081036200024057634e487b7160e01b600052602260045260246000fd5b50919050565b601f8211156200029457600081815260208120601f850160051c810160208610156200026f5750805b601f850160051c820191505b8181101562000290578281556001016200027b565b5050505b505050565b81516001600160401b03811115620002b557620002b5620000d2565b620002cd81620002c684546200020a565b8462000246565b602080601f831160018114620003055760008415620002ec5750858301515b600019600386901b1c1916600185901b17855562000290565b600085815260208120601f198616915b82811015620003365788860151825594840194600190910190840162000315565b5085821015620003555787850151600019600388901b60f8161c191681555b5050505050600190811b01905550565b6080516112c662000388600039600081816108460152610f5e01526112c66000f3fe60806040526004361061012a5760003560e01c806370a08231116100ab578063a9059cbb1161006f578063a9059cbb1461031d578063d96a094a1461033d578063dd62ed3e14610350578063e4849b3214610370578063eb91d37e14610390578063f2fde38b146103a557600080fd5b806370a0823114610275578063715018a6146102ab5780638da5cb5b146102c057806395d89b41146102e8578063a457c2d7146102fd57600080fd5b806325f2b2ac116100f257806325f2b2ac146101ed578063313ce5671461020d57806339509351146102295780633ccfd60b146102495780633e1dea631461026057600080fd5b806306fdde031461012f578063095ea7b31461015a578063147499881461018a57806318160ddd146101b857806323b872dd146101cd575b600080fd5b34801561013b57600080fd5b506101446103c5565b6040516101519190610f82565b60405180910390f35b34801561016657600080fd5b5061017a610175366004610fec565b610457565b6040519015158152602001610151565b34801561019657600080fd5b506101aa6101a5366004611016565b610471565b604051908152602001610151565b3480156101c457600080fd5b506002546101aa565b3480156101d957600080fd5b5061017a6101e836600461102f565b61047c565b3480156101f957600080fd5b506101aa610208366004611016565b6104a0565b34801561021957600080fd5b5060405160128152602001610151565b34801561023557600080fd5b5061017a610244366004610fec565b6104ab565b34801561025557600080fd5b5061025e6104cd565b005b34801561026c57600080fd5b506101aa61059c565b34801561028157600080fd5b506101aa61029036600461106b565b6001600160a01b031660009081526020819052604090205490565b3480156102b757600080fd5b5061025e6105ad565b3480156102cc57600080fd5b506005546040516001600160a01b039091168152602001610151565b3480156102f457600080fd5b506101446105c1565b34801561030957600080fd5b5061017a610318366004610fec565b6105d0565b34801561032957600080fd5b5061017a610338366004610fec565b61064b565b61025e61034b366004611016565b610659565b34801561035c57600080fd5b506101aa61036b36600461108d565b61070e565b34801561037c57600080fd5b5061025e61038b366004611016565b610739565b34801561039c57600080fd5b506101aa610835565b3480156103b157600080fd5b5061025e6103c036600461106b565b61086f565b6060600380546103d4906110c0565b80601f0160208091040260200160405190810160405280929190818152602001828054610400906110c0565b801561044d5780601f106104225761010080835404028352916020019161044d565b820191906000526020600020905b81548152906001019060200180831161043057829003601f168201915b5050505050905090565b6000336104658185856108e8565b60019150505b92915050565b600061046b82610a0c565b60003361048a858285610a4c565b610495858585610ac0565b506001949350505050565b600061046b82610c64565b6000336104658185856104be838361070e565b6104c89190611110565b6108e8565b6104d5610c92565b60006006541161050b57600654604051635f06b92b60e01b81526004810182905260248101919091526044015b60405180910390fd5b60068054600091829055906105286005546001600160a01b031690565b6001600160a01b03168260405160006040518083038185875af1925050503d8060008114610572576040519150601f19603f3d011682016040523d82523d6000602084013e610577565b606091505b50509050806105985760405162461bcd60e51b815260040161050290611123565b5050565b60006105a6610c92565b5060065490565b6105b5610c92565b6105bf6000610cec565b565b6060600480546103d4906110c0565b600033816105de828661070e565b90508381101561063e5760405162461bcd60e51b815260206004820152602560248201527f45524332303a2064656372656173656420616c6c6f77616e63652062656c6f77604482015264207a65726f60d81b6064820152608401610502565b61049582868684036108e8565b600033610465818585610ac0565b600061066482610c64565b90508034101561069057604051635f06b92b60e01b815234600482015233316024820152604401610502565b61069a3383610d3e565b6000336106a78334611151565b604051600081818185875af1925050503d80600081146106e3576040519150601f19603f3d011682016040523d82523d6000602084013e6106e8565b606091505b50509050806107095760405162461bcd60e51b815260040161050290611123565b505050565b6001600160a01b03918216600090815260016020908152604080832093909416825291909152205490565b3360009081526020819052604090205481111561078457336000908152602081905260409020548190604051630fcd33d560e01b815260048101929092526024820152604401610502565b600061078f82610a0c565b9050600061079c82610dfd565b90506107a83384610e18565b80600660008282546107ba9190611110565b9091555060009050336107cd8385611151565b604051600081818185875af1925050503d8060008114610809576040519150601f19603f3d011682016040523d82523d6000602084013e61080e565b606091505b505090508061082f5760405162461bcd60e51b815260040161050290611123565b50505050565b600061084060025490565b61086a907f0000000000000000000000000000000000000000000000000000000000000000611164565b905090565b610877610c92565b6001600160a01b0381166108dc5760405162461bcd60e51b815260206004820152602660248201527f4f776e61626c653a206e6577206f776e657220697320746865207a65726f206160448201526564647265737360d01b6064820152608401610502565b6108e581610cec565b50565b6001600160a01b03831661094a5760405162461bcd60e51b8152602060048201526024808201527f45524332303a20617070726f76652066726f6d20746865207a65726f206164646044820152637265737360e01b6064820152608401610502565b6001600160a01b0382166109ab5760405162461bcd60e51b815260206004820152602260248201527f45524332303a20617070726f766520746f20746865207a65726f206164647265604482015261737360f01b6064820152608401610502565b6001600160a01b0383811660008181526001602090815260408083209487168084529482529182902085905590518481527f8c5be1e5ebec7d5bd14f71427d1e84f3dd0314c0f7b2291e5b200ac8c7c3b925910160405180910390a3505050565b600080610a1860025490565b90506000610a268483611151565b9050610a3181610f4a565b610a3a83610f4a565b610a449190611151565b949350505050565b6000610a58848461070e565b9050600019811461082f5781811015610ab35760405162461bcd60e51b815260206004820152601d60248201527f45524332303a20696e73756666696369656e7420616c6c6f77616e63650000006044820152606401610502565b61082f84848484036108e8565b6001600160a01b038316610b245760405162461bcd60e51b815260206004820152602560248201527f45524332303a207472616e736665722066726f6d20746865207a65726f206164604482015264647265737360d81b6064820152608401610502565b6001600160a01b038216610b865760405162461bcd60e51b815260206004820152602360248201527f45524332303a207472616e7366657220746f20746865207a65726f206164647260448201526265737360e81b6064820152608401610502565b6001600160a01b03831660009081526020819052604090205481811015610bfe5760405162461bcd60e51b815260206004820152602660248201527f45524332303a207472616e7366657220616d6f756e7420657863656564732062604482015265616c616e636560d01b6064820152608401610502565b6001600160a01b03848116600081815260208181526040808320878703905593871680835291849020805487019055925185815290927fddf252ad1be2c89b69c2b068fc378daa952ba7f163c4a11628f55a4df523b3ef910160405180910390a361082f565b600080610c7060025490565b90506000610c7e8483611110565b9050610c8982610f4a565b610a3a82610f4a565b6005546001600160a01b031633146105bf5760405162461bcd60e51b815260206004820181905260248201527f4f776e61626c653a2063616c6c6572206973206e6f7420746865206f776e65726044820152606401610502565b600580546001600160a01b038381166001600160a01b0319831681179093556040519116919082907f8be0079c531659141344cd1fd0a4f28419497f9722a3daafe3b4186f6b6457e090600090a35050565b6001600160a01b038216610d945760405162461bcd60e51b815260206004820152601f60248201527f45524332303a206d696e7420746f20746865207a65726f2061646472657373006044820152606401610502565b8060026000828254610da69190611110565b90915550506001600160a01b038216600081815260208181526040808320805486019055518481527fddf252ad1be2c89b69c2b068fc378daa952ba7f163c4a11628f55a4df523b3ef910160405180910390a35050565b6000612710610e0e6103e884611164565b61046b919061117b565b6001600160a01b038216610e785760405162461bcd60e51b815260206004820152602160248201527f45524332303a206275726e2066726f6d20746865207a65726f206164647265736044820152607360f81b6064820152608401610502565b6001600160a01b03821660009081526020819052604090205481811015610eec5760405162461bcd60e51b815260206004820152602260248201527f45524332303a206275726e20616d6f756e7420657863656564732062616c616e604482015261636560f01b6064820152608401610502565b6001600160a01b0383166000818152602081815260408083208686039055600280548790039055518581529192917fddf252ad1be2c89b69c2b068fc378daa952ba7f163c4a11628f55a4df523b3ef910160405180910390a3505050565b60006002610f588184611281565b610e0e907f0000000000000000000000000000000000000000000000000000000000000000611164565b600060208083528351808285015260005b81811015610faf57858101830151858201604001528201610f93565b506000604082860101526040601f19601f8301168501019250505092915050565b80356001600160a01b0381168114610fe757600080fd5b919050565b60008060408385031215610fff57600080fd5b61100883610fd0565b946020939093013593505050565b60006020828403121561102857600080fd5b5035919050565b60008060006060848603121561104457600080fd5b61104d84610fd0565b925061105b60208501610fd0565b9150604084013590509250925092565b60006020828403121561107d57600080fd5b61108682610fd0565b9392505050565b600080604083850312156110a057600080fd5b6110a983610fd0565b91506110b760208401610fd0565b90509250929050565b600181811c908216806110d457607f821691505b6020821081036110f457634e487b7160e01b600052602260045260246000fd5b50919050565b634e487b7160e01b600052601160045260246000fd5b8082018082111561046b5761046b6110fa565b6020808252601490820152732330b4b632b2103a379039b2b7321022ba3432b960611b604082015260600190565b8181038181111561046b5761046b6110fa565b808202811582820484141761046b5761046b6110fa565b60008261119857634e487b7160e01b600052601260045260246000fd5b500490565b600181815b808511156111d85781600019048211156111be576111be6110fa565b808516156111cb57918102915b93841c93908002906111a2565b509250929050565b6000826111ef5750600161046b565b816111fc5750600061046b565b8160018114611212576002811461121c57611238565b600191505061046b565b60ff84111561122d5761122d6110fa565b50506001821b61046b565b5060208310610133831016604e8410600b841016171561125b575081810a61046b565b611265838361119d565b8060001904821115611279576112796110fa565b029392505050565b600061108660ff8416836111e056fea264697066735822122043ce5d2c8eb48fdeec266a61e6b64f9974b79a5dce0aed552986bed90e96393564736f6c63430008110033",
    "linkReferences": {}
  },
  "methodIdentifiers": {
    "allowance(address,address)": "dd62ed3e",
    "approve(address,uint256)": "095ea7b3",
    "balanceOf(address)": "70a08231",
    "buy(uint256)": "d96a094a",
    "calculatePriceForBuy(uint256)": "25f2b2ac",
    "calculatePriceForSell(uint256)": "14749988",
    "decimals()": "313ce567",
    "decreaseAllowance(address,uint256)": "a457c2d7",
    "getCurrentPrice()": "eb91d37e",
    "increaseAllowance(address,uint256)": "39509351",
    "name()": "06fdde03",
    "owner()": "8da5cb5b",
    "renounceOwnership()": "715018a6",
    "sell(uint256)": "e4849b32",
    "symbol()": "95d89b41",
    "totalSupply()": "18160ddd",
    "transfer(address,uint256)": "a9059cbb",
    "transferFrom(address,address,uint256)": "23b872dd",
    "transferOwnership(address)": "f2fde38b",
    "viewTax()": "3e1dea63",
    "withdraw()": "3ccfd60b"
  },
  "id": 1
}